{
  "contractName": "AuctionHouse",
  "abi": [
    {
      "inputs": [],
      "payable": false,
      "stateMutability": "nonpayable",
      "type": "constructor"
    },
    {
      "constant": true,
      "inputs": [],
      "name": "auctionCount",
      "outputs": [
        {
          "internalType": "uint256",
          "name": "",
          "type": "uint256"
        }
      ],
      "payable": false,
      "stateMutability": "view",
      "type": "function"
    },
    {
      "constant": true,
      "inputs": [
        {
          "internalType": "address",
          "name": "",
          "type": "address"
        }
      ],
      "name": "auctionWinners",
      "outputs": [
        {
          "internalType": "bool",
          "name": "",
          "type": "bool"
        }
      ],
      "payable": false,
      "stateMutability": "view",
      "type": "function"
    },
    {
      "constant": true,
      "inputs": [
        {
          "internalType": "uint256",
          "name": "",
          "type": "uint256"
        }
      ],
      "name": "auctions",
      "outputs": [
        {
          "internalType": "string",
          "name": "itemName",
          "type": "string"
        },
        {
          "internalType": "uint256",
          "name": "minBid",
          "type": "uint256"
        },
        {
          "internalType": "uint256",
          "name": "highestBid",
          "type": "uint256"
        },
        {
          "internalType": "address payable",
          "name": "leadingBidder",
          "type": "address"
        },
        {
          "internalType": "address payable",
          "name": "auctionCreator",
          "type": "address"
        },
        {
          "internalType": "uint256",
          "name": "total",
          "type": "uint256"
        },
        {
          "internalType": "bool",
          "name": "completed",
          "type": "bool"
        }
      ],
      "payable": false,
      "stateMutability": "view",
      "type": "function"
    },
    {
      "constant": true,
      "inputs": [
        {
          "internalType": "address",
          "name": "",
          "type": "address"
        }
      ],
      "name": "bidders",
      "outputs": [
        {
          "internalType": "uint256",
          "name": "",
          "type": "uint256"
        }
      ],
      "payable": false,
      "stateMutability": "view",
      "type": "function"
    },
    {
      "constant": true,
      "inputs": [],
      "name": "manager",
      "outputs": [
        {
          "internalType": "address",
          "name": "",
          "type": "address"
        }
      ],
      "payable": false,
      "stateMutability": "view",
      "type": "function"
    },
    {
      "constant": false,
      "inputs": [
        {
          "internalType": "string",
          "name": "name",
          "type": "string"
        },
        {
          "internalType": "uint256",
          "name": "bid",
          "type": "uint256"
        }
      ],
      "name": "createAuction",
      "outputs": [],
      "payable": false,
      "stateMutability": "nonpayable",
      "type": "function"
    },
    {
      "constant": false,
      "inputs": [
        {
          "internalType": "uint256",
          "name": "auctionID",
          "type": "uint256"
        },
        {
          "internalType": "address payable",
          "name": "winner",
          "type": "address"
        }
      ],
      "name": "setAuctionWinner",
      "outputs": [],
      "payable": false,
      "stateMutability": "nonpayable",
      "type": "function"
    },
    {
      "constant": true,
      "inputs": [
        {
          "internalType": "uint256",
          "name": "auctionID",
          "type": "uint256"
        }
      ],
      "name": "getLastSoldVal",
      "outputs": [
        {
          "internalType": "uint256",
          "name": "",
          "type": "uint256"
        }
      ],
      "payable": false,
      "stateMutability": "view",
      "type": "function"
    },
    {
      "constant": true,
      "inputs": [
        {
          "internalType": "uint256",
          "name": "auctionID",
          "type": "uint256"
        }
      ],
      "name": "viewPreviousAuction",
      "outputs": [
        {
          "components": [
            {
              "internalType": "string",
              "name": "itemName",
              "type": "string"
            },
            {
              "internalType": "uint256",
              "name": "minBid",
              "type": "uint256"
            },
            {
              "internalType": "uint256",
              "name": "highestBid",
              "type": "uint256"
            },
            {
              "internalType": "address payable",
              "name": "leadingBidder",
              "type": "address"
            },
            {
              "internalType": "address payable",
              "name": "auctionCreator",
              "type": "address"
            },
            {
              "internalType": "uint256",
              "name": "total",
              "type": "uint256"
            },
            {
              "internalType": "bool",
              "name": "completed",
              "type": "bool"
            }
          ],
          "internalType": "struct AuctionHouse.Auction",
          "name": "",
          "type": "tuple"
        }
      ],
      "payable": false,
      "stateMutability": "view",
      "type": "function"
    },
    {
      "constant": false,
      "inputs": [
        {
          "internalType": "uint256",
          "name": "auctionID",
          "type": "uint256"
        },
        {
          "internalType": "uint256",
          "name": "bidValue",
          "type": "uint256"
        }
      ],
      "name": "placeBid",
      "outputs": [],
      "payable": true,
      "stateMutability": "payable",
      "type": "function"
    }
  ],
  "bytecode": "0x608060405234801561001057600080fd5b5033600460006101000a81548173ffffffffffffffffffffffffffffffffffffffff021916908373ffffffffffffffffffffffffffffffffffffffff16021790555061147a806100616000396000f3fe6080604052600436106100915760003560e01c806357c90de51161005957806357c90de51461019557806390cb0393146101b1578063f3464d76146101ee578063fcc8f7931461022b578063ff8952391461026857610091565b80630a71450b146100965780632ad71573146100d357806339c2607d146100fe578063481c6a7514610127578063571a26a014610152575b600080fd5b3480156100a257600080fd5b506100bd60048036036100b89190810190610d9b565b610291565b6040516100ca9190611171565b60405180910390f35b3480156100df57600080fd5b506100e86102b1565b6040516100f591906112a4565b60405180910390f35b34801561010a57600080fd5b5061012560048036036101209190810190610e41565b6102b7565b005b34801561013357600080fd5b5061013c610419565b6040516101499190611156565b60405180910390f35b34801561015e57600080fd5b5061017960048036036101749190810190610e18565b61043f565b60405161018c979695949392919061118c565b60405180910390f35b6101af60048036036101aa9190810190610e7d565b610573565b005b3480156101bd57600080fd5b506101d860048036036101d39190810190610e18565b6107eb565b6040516101e591906112a4565b60405180910390f35b3480156101fa57600080fd5b5061021560048036036102109190810190610e18565b610885565b6040516102229190611282565b60405180910390f35b34801561023757600080fd5b50610252600480360361024d9190810190610d9b565b610a41565b60405161025f91906112a4565b60405180910390f35b34801561027457600080fd5b5061028f600480360361028a9190810190610dc4565b610a59565b005b60026020528060005260406000206000915054906101000a900460ff1681565b60035481565b60001515600083815481106102c857fe5b906000526020600020906007020160060160009054906101000a900460ff16151514610329576040517f08c379a000000000000000000000000000000000000000000000000000000000815260040161032090611242565b60405180910390fd5b806000838154811061033757fe5b906000526020600020906007020160030160006101000a81548173ffffffffffffffffffffffffffffffffffffffff021916908373ffffffffffffffffffffffffffffffffffffffff1602179055506001600260008373ffffffffffffffffffffffffffffffffffffffff1673ffffffffffffffffffffffffffffffffffffffff16815260200190815260200160002060006101000a81548160ff0219169083151502179055506001600083815481106103ed57fe5b906000526020600020906007020160060160006101000a81548160ff0219169083151502179055505050565b600460009054906101000a900473ffffffffffffffffffffffffffffffffffffffff1681565b6000818154811061044c57fe5b9060005260206000209060070201600091509050806000018054600181600116156101000203166002900480601f0160208091040260200160405190810160405280929190818152602001828054600181600116156101000203166002900480156104f85780601f106104cd576101008083540402835291602001916104f8565b820191906000526020600020905b8154815290600101906020018083116104db57829003601f168201915b5050505050908060010154908060020154908060030160009054906101000a900473ffffffffffffffffffffffffffffffffffffffff16908060040160009054906101000a900473ffffffffffffffffffffffffffffffffffffffff16908060050154908060060160009054906101000a900460ff16905087565b600015156000838154811061058457fe5b906000526020600020906007020160060160009054906101000a900460ff161515146105e5576040517f08c379a00000000000000000000000000000000000000000000000000000000081526004016105dc90611242565b60405180910390fd5b600082815481106105f257fe5b906000526020600020906007020160010154811015610646576040517f08c379a000000000000000000000000000000000000000000000000000000000815260040161063d90611262565b60405180910390fd5b806000838154811061065457fe5b906000526020600020906007020160050160008282540192505081905550600160003373ffffffffffffffffffffffffffffffffffffffff1673ffffffffffffffffffffffffffffffffffffffff1681526020019081526020016000205481116106f3576040517f08c379a00000000000000000000000000000000000000000000000000000000081526004016106ea90611222565b60405180910390fd5b6000828154811061070057fe5b9060005260206000209060070201600201548111156107e757806000838154811061072757fe5b906000526020600020906007020160020181905550336000838154811061074a57fe5b906000526020600020906007020160030160006101000a81548173ffffffffffffffffffffffffffffffffffffffff021916908373ffffffffffffffffffffffffffffffffffffffff16021790555080600160003373ffffffffffffffffffffffffffffffffffffffff1673ffffffffffffffffffffffffffffffffffffffff168152602001908152602001600020600082825401925050819055505b5050565b600060011515600083815481106107fe57fe5b906000526020600020906007020160060160009054906101000a900460ff1615151461085f576040517f08c379a000000000000000000000000000000000000000000000000000000000815260040161085690611202565b60405180910390fd5b6000828154811061086c57fe5b9060005260206000209060070201600201549050919050565b61088d610bf8565b6000828154811061089a57fe5b90600052602060002090600702016040518060e0016040529081600082018054600181600116156101000203166002900480601f01602080910402602001604051908101604052809291908181526020018280546001816001161561010002031660029004801561094c5780601f106109215761010080835404028352916020019161094c565b820191906000526020600020905b81548152906001019060200180831161092f57829003601f168201915b5050505050815260200160018201548152602001600282015481526020016003820160009054906101000a900473ffffffffffffffffffffffffffffffffffffffff1673ffffffffffffffffffffffffffffffffffffffff1673ffffffffffffffffffffffffffffffffffffffff1681526020016004820160009054906101000a900473ffffffffffffffffffffffffffffffffffffffff1673ffffffffffffffffffffffffffffffffffffffff1673ffffffffffffffffffffffffffffffffffffffff168152602001600582015481526020016006820160009054906101000a900460ff1615151515815250509050919050565b60016020528060005260406000206000915090505481565b610a61610bf8565b6040518060e00160405280848152602001838152602001600081526020013373ffffffffffffffffffffffffffffffffffffffff1681526020013373ffffffffffffffffffffffffffffffffffffffff16815260200160008152602001600015158152509050600081908060018154018082558091505090600182039060005260206000209060070201600090919290919091506000820151816000019080519060200190610b11929190610c63565b50602082015181600101556040820151816002015560608201518160030160006101000a81548173ffffffffffffffffffffffffffffffffffffffff021916908373ffffffffffffffffffffffffffffffffffffffff16021790555060808201518160040160006101000a81548173ffffffffffffffffffffffffffffffffffffffff021916908373ffffffffffffffffffffffffffffffffffffffff16021790555060a0820151816005015560c08201518160060160006101000a81548160ff021916908315150217905550505050600360008154809291906001019190505550505050565b6040518060e00160405280606081526020016000815260200160008152602001600073ffffffffffffffffffffffffffffffffffffffff168152602001600073ffffffffffffffffffffffffffffffffffffffff168152602001600081526020016000151581525090565b828054600181600116156101000203166002900490600052602060002090601f016020900481019282601f10610ca457805160ff1916838001178555610cd2565b82800160010185558215610cd2579182015b82811115610cd1578251825591602001919060010190610cb6565b5b509050610cdf9190610ce3565b5090565b610d0591905b80821115610d01576000816000905550600101610ce9565b5090565b90565b600081359050610d17816113f2565b92915050565b600081359050610d2c81611409565b92915050565b600082601f830112610d4357600080fd5b8135610d56610d51826112ec565b6112bf565b91508082526020830160208301858383011115610d7257600080fd5b610d7d83828461139f565b50505092915050565b600081359050610d9581611420565b92915050565b600060208284031215610dad57600080fd5b6000610dbb84828501610d08565b91505092915050565b60008060408385031215610dd757600080fd5b600083013567ffffffffffffffff811115610df157600080fd5b610dfd85828601610d32565b9250506020610e0e85828601610d86565b9150509250929050565b600060208284031215610e2a57600080fd5b6000610e3884828501610d86565b91505092915050565b60008060408385031215610e5457600080fd5b6000610e6285828601610d86565b9250506020610e7385828601610d1d565b9150509250929050565b60008060408385031215610e9057600080fd5b6000610e9e85828601610d86565b9250506020610eaf85828601610d86565b9150509250929050565b610ec281611357565b82525050565b610ed181611357565b82525050565b610ee081611345565b82525050565b610eef81611369565b82525050565b610efe81611369565b82525050565b6000610f0f82611318565b610f198185611323565b9350610f298185602086016113ae565b610f32816113e1565b840191505092915050565b6000610f4882611318565b610f528185611334565b9350610f628185602086016113ae565b610f6b816113e1565b840191505092915050565b6000610f83601983611334565b91507f41756374696f6e206d75737420626520636f6d706c65746564000000000000006000830152602082019050919050565b6000610fc3602983611334565b91507f4e65787420626964206d75737420626520686967686572207468616e2070726560008301527f76696f75732062696400000000000000000000000000000000000000000000006020830152604082019050919050565b6000611029601683611334565b91507f41756374696f6e206d75737420626520616374697665000000000000000000006000830152602082019050919050565b6000611069602083611334565b91507f426964206d7573742062652067726561746572207468616e206d696e696d756d6000830152602082019050919050565b600060e08301600083015184820360008601526110b98282610f04565b91505060208301516110ce6020860182611138565b5060408301516110e16040860182611138565b5060608301516110f46060860182610eb9565b5060808301516111076080860182610eb9565b5060a083015161111a60a0860182611138565b5060c083015161112d60c0860182610ee6565b508091505092915050565b61114181611395565b82525050565b61115081611395565b82525050565b600060208201905061116b6000830184610ed7565b92915050565b60006020820190506111866000830184610ef5565b92915050565b600060e08201905081810360008301526111a6818a610f3d565b90506111b56020830189611147565b6111c26040830188611147565b6111cf6060830187610ec8565b6111dc6080830186610ec8565b6111e960a0830185611147565b6111f660c0830184610ef5565b98975050505050505050565b6000602082019050818103600083015261121b81610f76565b9050919050565b6000602082019050818103600083015261123b81610fb6565b9050919050565b6000602082019050818103600083015261125b8161101c565b9050919050565b6000602082019050818103600083015261127b8161105c565b9050919050565b6000602082019050818103600083015261129c818461109c565b905092915050565b60006020820190506112b96000830184611147565b92915050565b6000604051905081810181811067ffffffffffffffff821117156112e257600080fd5b8060405250919050565b600067ffffffffffffffff82111561130357600080fd5b601f19601f8301169050602081019050919050565b600081519050919050565b600082825260208201905092915050565b600082825260208201905092915050565b600061135082611375565b9050919050565b600061136282611375565b9050919050565b60008115159050919050565b600073ffffffffffffffffffffffffffffffffffffffff82169050919050565b6000819050919050565b82818337600083830152505050565b60005b838110156113cc5780820151818401526020810190506113b1565b838111156113db576000848401525b50505050565b6000601f19601f8301169050919050565b6113fb81611345565b811461140657600080fd5b50565b61141281611357565b811461141d57600080fd5b50565b61142981611395565b811461143457600080fd5b5056fea365627a7a72315820e2f7879d9a432a2f6a8434dc458a2b702ebb0206caab0314ea3051d5071b43946c6578706572696d656e74616cf564736f6c63430005100040",
  "source": "pragma solidity >=0.4.22 <0.7.0;\npragma experimental ABIEncoderV2;\n\ncontract AuctionHouse {\n\n    struct Auction {\n        string itemName;\n        uint minBid;\n        uint highestBid;\n        address payable leadingBidder;\n        address payable auctionCreator;\n        uint total;\n        bool completed;\n    }\n\n    Auction[] public auctions;\n\n    mapping(address => uint) public bidders;\n\n    mapping(address => bool) public auctionWinners;\n\n    uint public auctionCount;\n\n    address public manager;\n\n\n    constructor() public {\n        manager = msg.sender;\n    }\n\n    function createAuction(string memory name, uint bid) public {\n        //establishes timestamp on the auction\n        Auction memory newAuction = Auction({\n            itemName: name,\n            minBid: bid,\n            highestBid: 0,  //keeps track of last winning bid- new bid must be higher >-handle double spending of bids\n            leadingBidder: msg.sender,\n            auctionCreator: msg.sender,\n            total: 0,\n            completed: false\n        });\n\n        auctions.push(newAuction);\n        auctionCount++;\n    }\n\n    function setAuctionWinner(uint auctionID, address payable winner) public {\n        require(auctions[auctionID].completed == false, 'Auction must be active');\n        auctions[auctionID].leadingBidder = winner;     //the current leading bidder will be the winner if the auction has expired\n        auctionWinners[winner] = true;\n        auctions[auctionID].completed = true;\n    }\n\n    function getLastSoldVal(uint auctionID) public view returns (uint) {\n        require(auctions[auctionID].completed == true, 'Auction must be completed');\n        return auctions[auctionID].highestBid;   //the current state of highest bid is the last winning bid\n    }\n\n    function viewPreviousAuction(uint auctionID) public view returns(Auction memory) {\n        return auctions[auctionID];\n    }\n\n    function placeBid(uint auctionID, uint bidValue) public payable {\n        require(auctions[auctionID].completed == false, 'Auction must be active');\n        require(bidValue >= auctions[auctionID].minBid, 'Bid must be greater than minimum');\n        auctions[auctionID].total += bidValue;\n\n        //conditional check for updating last bid value\n        require(bidValue > bidders[msg.sender], 'Next bid must be higher than previous bid');\n\n\n        if(bidValue > auctions[auctionID].highestBid) {\n            auctions[auctionID].highestBid = bidValue;\n            auctions[auctionID].leadingBidder = msg.sender;\n            bidders[msg.sender] += bidValue;\n        }\n    }\n\n    function stringToBytes32(string memory source) private pure returns (bytes32 result) {\n        bytes memory tempEmptyStringTest = bytes(source);\n        if (tempEmptyStringTest.length == 0) {\n            return 0x0;\n        }\n\n        assembly {\n            result := mload(add(source, 32))\n        }\n    }\n}\n",
  "sourcePath": "/home/j/decentralized-auction-app/src/auction/contracts/AuctionHouse.sol",
  "compiler": {
    "name": "solc",
    "version": "0.5.16+commit.9c3226ce.Emscripten.clang"
  },
  "schemaVersion": "3.3.2",
  "updatedAt": "2020-12-05T21:09:55.475Z",
  "networkType": "ethereum",
  "devdoc": {
    "methods": {}
  },
  "userdoc": {
    "methods": {}
  }
}