{
  "contractName": "AuctionHouse",
  "abi": [
    {
      "inputs": [],
      "payable": false,
      "stateMutability": "nonpayable",
      "type": "constructor"
    },
    {
      "constant": true,
      "inputs": [],
      "name": "auctionCount",
      "outputs": [
        {
          "internalType": "uint256",
          "name": "",
          "type": "uint256"
        }
      ],
      "payable": false,
      "stateMutability": "view",
      "type": "function"
    },
    {
      "constant": true,
      "inputs": [
        {
          "internalType": "address",
          "name": "",
          "type": "address"
        }
      ],
      "name": "auctionWinners",
      "outputs": [
        {
          "internalType": "bool",
          "name": "",
          "type": "bool"
        }
      ],
      "payable": false,
      "stateMutability": "view",
      "type": "function"
    },
    {
      "constant": true,
      "inputs": [
        {
          "internalType": "uint256",
          "name": "",
          "type": "uint256"
        }
      ],
      "name": "auctions",
      "outputs": [
        {
          "internalType": "string",
          "name": "itemName",
          "type": "string"
        },
        {
          "internalType": "address payable",
          "name": "leadingBidder",
          "type": "address"
        },
        {
          "internalType": "address payable",
          "name": "auctionCreator",
          "type": "address"
        },
        {
          "internalType": "uint256",
          "name": "bid",
          "type": "uint256"
        },
        {
          "internalType": "uint256",
          "name": "total",
          "type": "uint256"
        },
        {
          "internalType": "bool",
          "name": "completed",
          "type": "bool"
        }
      ],
      "payable": false,
      "stateMutability": "view",
      "type": "function"
    },
    {
      "constant": true,
      "inputs": [
        {
          "internalType": "address",
          "name": "",
          "type": "address"
        }
      ],
      "name": "bidders",
      "outputs": [
        {
          "internalType": "uint256",
          "name": "",
          "type": "uint256"
        }
      ],
      "payable": false,
      "stateMutability": "view",
      "type": "function"
    },
    {
      "constant": true,
      "inputs": [],
      "name": "manager",
      "outputs": [
        {
          "internalType": "address",
          "name": "",
          "type": "address"
        }
      ],
      "payable": false,
      "stateMutability": "view",
      "type": "function"
    },
    {
      "constant": false,
      "inputs": [
        {
          "internalType": "string",
          "name": "name",
          "type": "string"
        },
        {
          "internalType": "uint256",
          "name": "bidStart",
          "type": "uint256"
        }
      ],
      "name": "createAuction",
      "outputs": [],
      "payable": false,
      "stateMutability": "nonpayable",
      "type": "function"
    },
    {
      "constant": false,
      "inputs": [
        {
          "internalType": "uint256",
          "name": "auctionID",
          "type": "uint256"
        },
        {
          "internalType": "address payable",
          "name": "winner",
          "type": "address"
        }
      ],
      "name": "setAuctionWinner",
      "outputs": [],
      "payable": false,
      "stateMutability": "nonpayable",
      "type": "function"
    },
    {
      "constant": true,
      "inputs": [
        {
          "internalType": "uint256",
          "name": "auctionID",
          "type": "uint256"
        }
      ],
      "name": "getLastSoldVal",
      "outputs": [
        {
          "internalType": "uint256",
          "name": "",
          "type": "uint256"
        }
      ],
      "payable": false,
      "stateMutability": "view",
      "type": "function"
    },
    {
      "constant": true,
      "inputs": [
        {
          "internalType": "uint256",
          "name": "auctionID",
          "type": "uint256"
        }
      ],
      "name": "viewPreviousAuction",
      "outputs": [
        {
          "internalType": "string",
          "name": "name",
          "type": "string"
        },
        {
          "internalType": "uint256",
          "name": "bid",
          "type": "uint256"
        }
      ],
      "payable": false,
      "stateMutability": "view",
      "type": "function"
    },
    {
      "constant": true,
      "inputs": [],
      "name": "getAuctionCount",
      "outputs": [
        {
          "internalType": "uint256",
          "name": "",
          "type": "uint256"
        }
      ],
      "payable": false,
      "stateMutability": "view",
      "type": "function"
    },
    {
      "constant": false,
      "inputs": [
        {
          "internalType": "uint256",
          "name": "auctionID",
          "type": "uint256"
        },
        {
          "internalType": "uint256",
          "name": "bidValue",
          "type": "uint256"
        }
      ],
      "name": "placeBid",
      "outputs": [],
      "payable": true,
      "stateMutability": "payable",
      "type": "function"
    }
  ],
  "bytecode": "0x608060405234801561001057600080fd5b5033600460006101000a81548173ffffffffffffffffffffffffffffffffffffffff021916908373ffffffffffffffffffffffffffffffffffffffff1602179055506111ee806100616000396000f3fe60806040526004361061009c5760003560e01c806357c90de51161006457806357c90de51461019f57806390cb0393146101bb578063c44e6640146101f8578063f3464d7614610223578063fcc8f79314610261578063ff8952391461029e5761009c565b80630a71450b146100a15780632ad71573146100de57806339c2607d14610109578063481c6a7514610132578063571a26a01461015d575b600080fd5b3480156100ad57600080fd5b506100c860048036036100c39190810190610c3e565b6102c7565b6040516100d59190610f0b565b60405180910390f35b3480156100ea57600080fd5b506100f36102e7565b604051610100919061101e565b60405180910390f35b34801561011557600080fd5b50610130600480360361012b9190810190610ce4565b6102ed565b005b34801561013e57600080fd5b5061014761044f565b6040516101549190610ef0565b60405180910390f35b34801561016957600080fd5b50610184600480360361017f9190810190610cbb565b610475565b60405161019696959493929190610f56565b60405180910390f35b6101b960048036036101b49190810190610d20565b6105a3565b005b3480156101c757600080fd5b506101e260048036036101dd9190810190610cbb565b610773565b6040516101ef919061101e565b60405180910390f35b34801561020457600080fd5b5061020d61080d565b60405161021a919061101e565b60405180910390f35b34801561022f57600080fd5b5061024a60048036036102459190810190610cbb565b610817565b604051610258929190610f26565b60405180910390f35b34801561026d57600080fd5b5061028860048036036102839190810190610c3e565b6108fc565b604051610295919061101e565b60405180910390f35b3480156102aa57600080fd5b506102c560048036036102c09190810190610c67565b610914565b005b60026020528060005260406000206000915054906101000a900460ff1681565b60035481565b60001515600083815481106102fe57fe5b906000526020600020906006020160050160009054906101000a900460ff1615151461035f576040517f08c379a000000000000000000000000000000000000000000000000000000000815260040161035690610ffe565b60405180910390fd5b806000838154811061036d57fe5b906000526020600020906006020160010160006101000a81548173ffffffffffffffffffffffffffffffffffffffff021916908373ffffffffffffffffffffffffffffffffffffffff1602179055506001600260008373ffffffffffffffffffffffffffffffffffffffff1673ffffffffffffffffffffffffffffffffffffffff16815260200190815260200160002060006101000a81548160ff02191690831515021790555060016000838154811061042357fe5b906000526020600020906006020160050160006101000a81548160ff0219169083151502179055505050565b600460009054906101000a900473ffffffffffffffffffffffffffffffffffffffff1681565b6000818154811061048257fe5b9060005260206000209060060201600091509050806000018054600181600116156101000203166002900480601f01602080910402602001604051908101604052809291908181526020018280546001816001161561010002031660029004801561052e5780601f106105035761010080835404028352916020019161052e565b820191906000526020600020905b81548152906001019060200180831161051157829003601f168201915b5050505050908060010160009054906101000a900473ffffffffffffffffffffffffffffffffffffffff16908060020160009054906101000a900473ffffffffffffffffffffffffffffffffffffffff16908060030154908060040154908060050160009054906101000a900460ff16905086565b60001515600083815481106105b457fe5b906000526020600020906006020160050160009054906101000a900460ff16151514610615576040517f08c379a000000000000000000000000000000000000000000000000000000000815260040161060c90610ffe565b60405180910390fd5b6000828154811061062257fe5b906000526020600020906006020160030154811015610676576040517f08c379a000000000000000000000000000000000000000000000000000000000815260040161066d90610fde565b60405180910390fd5b806000838154811061068457fe5b90600052602060002090600602016004016000828254019250508190555080600083815481106106b057fe5b90600052602060002090600602016003018190555033600083815481106106d357fe5b906000526020600020906006020160010160006101000a81548173ffffffffffffffffffffffffffffffffffffffff021916908373ffffffffffffffffffffffffffffffffffffffff16021790555080600160003373ffffffffffffffffffffffffffffffffffffffff1673ffffffffffffffffffffffffffffffffffffffff168152602001908152602001600020600082825401925050819055505050565b6000600115156000838154811061078657fe5b906000526020600020906006020160050160009054906101000a900460ff161515146107e7576040517f08c379a00000000000000000000000000000000000000000000000000000000081526004016107de90610fbe565b60405180910390fd5b600082815481106107f457fe5b9060005260206000209060060201600301549050919050565b6000600354905090565b6060600080838154811061082757fe5b90600052602060002090600602016000016000848154811061084557fe5b906000526020600020906006020160030154818054600181600116156101000203166002900480601f0160208091040260200160405190810160405280929190818152602001828054600181600116156101000203166002900480156108ec5780601f106108c1576101008083540402835291602001916108ec565b820191906000526020600020905b8154815290600101906020018083116108cf57829003601f168201915b5050505050915091509150915091565b60016020528060005260406000206000915090505481565b61091c610aa2565b6040518060c001604052808481526020013373ffffffffffffffffffffffffffffffffffffffff1681526020013373ffffffffffffffffffffffffffffffffffffffff168152602001838152602001600081526020016000151581525090506000819080600181540180825580915050906001820390600052602060002090600602016000909192909190915060008201518160000190805190602001906109c5929190610b06565b5060208201518160010160006101000a81548173ffffffffffffffffffffffffffffffffffffffff021916908373ffffffffffffffffffffffffffffffffffffffff16021790555060408201518160020160006101000a81548173ffffffffffffffffffffffffffffffffffffffff021916908373ffffffffffffffffffffffffffffffffffffffff160217905550606082015181600301556080820151816004015560a08201518160050160006101000a81548160ff021916908315150217905550505050600360008154809291906001019190505550505050565b6040518060c0016040528060608152602001600073ffffffffffffffffffffffffffffffffffffffff168152602001600073ffffffffffffffffffffffffffffffffffffffff16815260200160008152602001600081526020016000151581525090565b828054600181600116156101000203166002900490600052602060002090601f016020900481019282601f10610b4757805160ff1916838001178555610b75565b82800160010185558215610b75579182015b82811115610b74578251825591602001919060010190610b59565b5b509050610b829190610b86565b5090565b610ba891905b80821115610ba4576000816000905550600101610b8c565b5090565b90565b600081359050610bba81611166565b92915050565b600081359050610bcf8161117d565b92915050565b600082601f830112610be657600080fd5b8135610bf9610bf482611066565b611039565b91508082526020830160208301858383011115610c1557600080fd5b610c20838284611113565b50505092915050565b600081359050610c3881611194565b92915050565b600060208284031215610c5057600080fd5b6000610c5e84828501610bab565b91505092915050565b60008060408385031215610c7a57600080fd5b600083013567ffffffffffffffff811115610c9457600080fd5b610ca085828601610bd5565b9250506020610cb185828601610c29565b9150509250929050565b600060208284031215610ccd57600080fd5b6000610cdb84828501610c29565b91505092915050565b60008060408385031215610cf757600080fd5b6000610d0585828601610c29565b9250506020610d1685828601610bc0565b9150509250929050565b60008060408385031215610d3357600080fd5b6000610d4185828601610c29565b9250506020610d5285828601610c29565b9150509250929050565b610d65816110cb565b82525050565b610d74816110b9565b82525050565b610d83816110dd565b82525050565b6000610d948261109d565b610d9e81856110a8565b9350610dae818560208601611122565b610db781611155565b840191505092915050565b6000610dcd82611092565b610dd781856110a8565b9350610de7818560208601611122565b610df081611155565b840191505092915050565b6000610e086019836110a8565b91507f41756374696f6e206d75737420626520636f6d706c65746564000000000000006000830152602082019050919050565b6000610e486025836110a8565b91507f426964206d7573742062652067726561746572207468616e207374617274696e60008301527f67206269640000000000000000000000000000000000000000000000000000006020830152604082019050919050565b6000610eae6016836110a8565b91507f41756374696f6e206d75737420626520616374697665000000000000000000006000830152602082019050919050565b610eea81611109565b82525050565b6000602082019050610f056000830184610d6b565b92915050565b6000602082019050610f206000830184610d7a565b92915050565b60006040820190508181036000830152610f408185610d89565b9050610f4f6020830184610ee1565b9392505050565b600060c0820190508181036000830152610f708189610dc2565b9050610f7f6020830188610d5c565b610f8c6040830187610d5c565b610f996060830186610ee1565b610fa66080830185610ee1565b610fb360a0830184610d7a565b979650505050505050565b60006020820190508181036000830152610fd781610dfb565b9050919050565b60006020820190508181036000830152610ff781610e3b565b9050919050565b6000602082019050818103600083015261101781610ea1565b9050919050565b60006020820190506110336000830184610ee1565b92915050565b6000604051905081810181811067ffffffffffffffff8211171561105c57600080fd5b8060405250919050565b600067ffffffffffffffff82111561107d57600080fd5b601f19601f8301169050602081019050919050565b600081519050919050565b600081519050919050565b600082825260208201905092915050565b60006110c4826110e9565b9050919050565b60006110d6826110e9565b9050919050565b60008115159050919050565b600073ffffffffffffffffffffffffffffffffffffffff82169050919050565b6000819050919050565b82818337600083830152505050565b60005b83811015611140578082015181840152602081019050611125565b8381111561114f576000848401525b50505050565b6000601f19601f8301169050919050565b61116f816110b9565b811461117a57600080fd5b50565b611186816110cb565b811461119157600080fd5b50565b61119d81611109565b81146111a857600080fd5b5056fea365627a7a723158208ec006bb4010e9f0ba82c51fd232679406b79a0d48cdba67aa7e7f15dd48039a6c6578706572696d656e74616cf564736f6c63430005100040",
  "source": "pragma solidity >=0.4.22 <0.7.0;\npragma experimental ABIEncoderV2;\n\ncontract AuctionHouse {\n\n    struct Auction {\n        string itemName;\n        address payable leadingBidder;\n        address payable auctionCreator;\n        uint bid;\n        uint total;\n        bool completed;\n    }\n\n    Auction[] public auctions;\n\n    mapping(address => uint) public bidders;\n\n    mapping(address => bool) public auctionWinners;\n\n    uint public auctionCount;\n\n    address public manager;\n\n\n    constructor() public {\n        manager = msg.sender;\n    }\n\n    function createAuction(string memory name, uint bidStart) public {\n        //establishes timestamp on the auction\n        Auction memory newAuction = Auction({\n            itemName: name,\n            leadingBidder: msg.sender,\n            auctionCreator: msg.sender,\n            bid: bidStart,\n            total: 0,\n            completed: false\n        });\n\n        auctions.push(newAuction);\n        auctionCount++;\n    }\n\n    function setAuctionWinner(uint auctionID, address payable winner) public {\n        require(auctions[auctionID].completed == false, 'Auction must be active');\n        auctions[auctionID].leadingBidder = winner;     //the current leading bidder will be the winner if the auction has expired\n        auctionWinners[winner] = true;\n        auctions[auctionID].completed = true;\n    }\n\n    function getLastSoldVal(uint auctionID) public view returns (uint) {\n        require(auctions[auctionID].completed == true, 'Auction must be completed');\n        return auctions[auctionID].bid;   //the current state of highest bid is the last winning bid\n    }\n\n    function viewPreviousAuction(uint auctionID) public view returns(string memory name, uint bid) {\n        return (auctions[auctionID].itemName, auctions[auctionID].bid);\n    }\n\n    function getAuctionCount() public view returns(uint) {\n    \treturn auctionCount;\n    }\n\n    function placeBid(uint auctionID, uint bidValue) public payable {\n        require(auctions[auctionID].completed == false, 'Auction must be active');\n        require(bidValue >= auctions[auctionID].bid, 'Bid must be greater than starting bid');\n\n        auctions[auctionID].total += bidValue;\n        auctions[auctionID].bid = bidValue;\n        auctions[auctionID].leadingBidder = msg.sender;\n        bidders[msg.sender] += bidValue;\n    }\n}\n",
  "sourcePath": "/home/j/decentralized-auction-app/src/auction/contracts/AuctionHouse.sol",
  "compiler": {
    "name": "solc",
    "version": "0.5.16+commit.9c3226ce.Emscripten.clang"
  },
  "schemaVersion": "3.3.2",
  "updatedAt": "2020-12-10T22:33:58.188Z",
  "networkType": "ethereum",
  "devdoc": {
    "methods": {}
  },
  "userdoc": {
    "methods": {}
  }
}