{
  "contractName": "AuctionHouse",
  "abi": [
    {
      "inputs": [],
      "payable": false,
      "stateMutability": "nonpayable",
      "type": "constructor"
    },
    {
      "constant": true,
      "inputs": [],
      "name": "auctionCount",
      "outputs": [
        {
          "internalType": "uint256",
          "name": "",
          "type": "uint256"
        }
      ],
      "payable": false,
      "stateMutability": "view",
      "type": "function"
    },
    {
      "constant": true,
      "inputs": [
        {
          "internalType": "address",
          "name": "",
          "type": "address"
        }
      ],
      "name": "auctionWinners",
      "outputs": [
        {
          "internalType": "bool",
          "name": "",
          "type": "bool"
        }
      ],
      "payable": false,
      "stateMutability": "view",
      "type": "function"
    },
    {
      "constant": true,
      "inputs": [
        {
          "internalType": "uint256",
          "name": "",
          "type": "uint256"
        }
      ],
      "name": "auctions",
      "outputs": [
        {
          "internalType": "string",
          "name": "itemName",
          "type": "string"
        },
        {
          "internalType": "address payable",
          "name": "leadingBidder",
          "type": "address"
        },
        {
          "internalType": "address payable",
          "name": "auctionCreator",
          "type": "address"
        },
        {
          "internalType": "uint256",
          "name": "bid",
          "type": "uint256"
        },
        {
          "internalType": "uint256",
          "name": "total",
          "type": "uint256"
        },
        {
          "internalType": "uint256",
          "name": "h",
          "type": "uint256"
        },
        {
          "internalType": "uint256",
          "name": "m",
          "type": "uint256"
        },
        {
          "internalType": "uint256",
          "name": "s",
          "type": "uint256"
        },
        {
          "internalType": "bool",
          "name": "completed",
          "type": "bool"
        }
      ],
      "payable": false,
      "stateMutability": "view",
      "type": "function"
    },
    {
      "constant": true,
      "inputs": [
        {
          "internalType": "address",
          "name": "",
          "type": "address"
        }
      ],
      "name": "bidders",
      "outputs": [
        {
          "internalType": "uint256",
          "name": "",
          "type": "uint256"
        }
      ],
      "payable": false,
      "stateMutability": "view",
      "type": "function"
    },
    {
      "constant": true,
      "inputs": [],
      "name": "manager",
      "outputs": [
        {
          "internalType": "address",
          "name": "",
          "type": "address"
        }
      ],
      "payable": false,
      "stateMutability": "view",
      "type": "function"
    },
    {
      "constant": false,
      "inputs": [
        {
          "internalType": "string",
          "name": "name",
          "type": "string"
        },
        {
          "internalType": "uint256",
          "name": "bidStart",
          "type": "uint256"
        },
        {
          "internalType": "uint256",
          "name": "shours",
          "type": "uint256"
        },
        {
          "internalType": "uint256",
          "name": "sminutes",
          "type": "uint256"
        },
        {
          "internalType": "uint256",
          "name": "sseconds",
          "type": "uint256"
        }
      ],
      "name": "createAuction",
      "outputs": [],
      "payable": false,
      "stateMutability": "nonpayable",
      "type": "function"
    },
    {
      "constant": false,
      "inputs": [
        {
          "internalType": "uint256",
          "name": "auctionID",
          "type": "uint256"
        },
        {
          "internalType": "address payable",
          "name": "winner",
          "type": "address"
        }
      ],
      "name": "setAuctionWinner",
      "outputs": [],
      "payable": false,
      "stateMutability": "nonpayable",
      "type": "function"
    },
    {
      "constant": true,
      "inputs": [
        {
          "internalType": "uint256",
          "name": "auctionID",
          "type": "uint256"
        }
      ],
      "name": "getLastSoldVal",
      "outputs": [
        {
          "internalType": "uint256",
          "name": "",
          "type": "uint256"
        }
      ],
      "payable": false,
      "stateMutability": "view",
      "type": "function"
    },
    {
      "constant": true,
      "inputs": [
        {
          "internalType": "uint256",
          "name": "auctionID",
          "type": "uint256"
        }
      ],
      "name": "viewPreviousAuction",
      "outputs": [
        {
          "internalType": "string",
          "name": "name",
          "type": "string"
        },
        {
          "internalType": "uint256",
          "name": "bid",
          "type": "uint256"
        },
        {
          "internalType": "uint256",
          "name": "hour",
          "type": "uint256"
        },
        {
          "internalType": "uint256",
          "name": "minute",
          "type": "uint256"
        },
        {
          "internalType": "uint256",
          "name": "second",
          "type": "uint256"
        }
      ],
      "payable": false,
      "stateMutability": "view",
      "type": "function"
    },
    {
      "constant": true,
      "inputs": [],
      "name": "getAuctionCount",
      "outputs": [
        {
          "internalType": "uint256",
          "name": "",
          "type": "uint256"
        }
      ],
      "payable": false,
      "stateMutability": "view",
      "type": "function"
    },
    {
      "constant": false,
      "inputs": [
        {
          "internalType": "uint256",
          "name": "auctionID",
          "type": "uint256"
        },
        {
          "internalType": "uint256",
          "name": "bidValue",
          "type": "uint256"
        }
      ],
      "name": "placeBid",
      "outputs": [],
      "payable": true,
      "stateMutability": "payable",
      "type": "function"
    },
    {
      "constant": false,
      "inputs": [
        {
          "internalType": "uint256",
          "name": "auctionID",
          "type": "uint256"
        },
        {
          "internalType": "uint256",
          "name": "hs",
          "type": "uint256"
        },
        {
          "internalType": "uint256",
          "name": "ms",
          "type": "uint256"
        },
        {
          "internalType": "uint256",
          "name": "ss",
          "type": "uint256"
        }
      ],
      "name": "updateTime",
      "outputs": [],
      "payable": false,
      "stateMutability": "nonpayable",
      "type": "function"
    }
  ],
  "bytecode": "0x608060405234801561001057600080fd5b5033600460006101000a81548173ffffffffffffffffffffffffffffffffffffffff021916908373ffffffffffffffffffffffffffffffffffffffff160217905550611454806100616000396000f3fe6080604052600436106100a75760003560e01c806357c90de51161006457806357c90de5146101d657806390cb0393146101f2578063c44e66401461022f578063e8fd3b0f1461025a578063f3464d7614610283578063fcc8f793146102c4576100a7565b80630a71450b146100ac5780632ad71573146100e957806339c2607d14610114578063481c6a751461013d578063498aa49b14610168578063571a26a014610191575b600080fd5b3480156100b857600080fd5b506100d360048036036100ce9190810190610db0565b610301565b6040516100e0919061111b565b60405180910390f35b3480156100f557600080fd5b506100fe610321565b60405161010b9190611284565b60405180910390f35b34801561012057600080fd5b5061013b60048036036101369190810190610e91565b610327565b005b34801561014957600080fd5b50610152610489565b60405161015f9190611100565b60405180910390f35b34801561017457600080fd5b5061018f600480360361018a9190810190610dd9565b6104af565b005b34801561019d57600080fd5b506101b860048036036101b39190810190610e68565b610672565b6040516101cd99989796959493929190611190565b60405180910390f35b6101f060048036036101eb9190810190610ecd565b6107b2565b005b3480156101fe57600080fd5b5061021960048036036102149190810190610e68565b610982565b6040516102269190611284565b60405180910390f35b34801561023b57600080fd5b50610244610a1c565b6040516102519190611284565b60405180910390f35b34801561026657600080fd5b50610281600480360361027c9190810190610f09565b610a26565b005b34801561028f57600080fd5b506102aa60048036036102a59190810190610e68565b610a95565b6040516102bb959493929190611136565b60405180910390f35b3480156102d057600080fd5b506102eb60048036036102e69190810190610db0565b610be6565b6040516102f89190611284565b60405180910390f35b60026020528060005260406000206000915054906101000a900460ff1681565b60035481565b600015156000838154811061033857fe5b906000526020600020906009020160080160009054906101000a900460ff16151514610399576040517f08c379a000000000000000000000000000000000000000000000000000000000815260040161039090611264565b60405180910390fd5b80600083815481106103a757fe5b906000526020600020906009020160010160006101000a81548173ffffffffffffffffffffffffffffffffffffffff021916908373ffffffffffffffffffffffffffffffffffffffff1602179055506001600260008373ffffffffffffffffffffffffffffffffffffffff1673ffffffffffffffffffffffffffffffffffffffff16815260200190815260200160002060006101000a81548160ff02191690831515021790555060016000838154811061045d57fe5b906000526020600020906009020160080160006101000a81548160ff0219169083151502179055505050565b600460009054906101000a900473ffffffffffffffffffffffffffffffffffffffff1681565b6104b7610bfe565b6040518061012001604052808781526020013373ffffffffffffffffffffffffffffffffffffffff1681526020013373ffffffffffffffffffffffffffffffffffffffff16815260200186815260200160008152602001858152602001848152602001838152602001600015158152509050600081908060018154018082558091505090600182039060005260206000209060090201600090919290919091506000820151816000019080519060200190610573929190610c78565b5060208201518160010160006101000a81548173ffffffffffffffffffffffffffffffffffffffff021916908373ffffffffffffffffffffffffffffffffffffffff16021790555060408201518160020160006101000a81548173ffffffffffffffffffffffffffffffffffffffff021916908373ffffffffffffffffffffffffffffffffffffffff160217905550606082015181600301556080820151816004015560a0820151816005015560c0820151816006015560e082015181600701556101008201518160080160006101000a81548160ff021916908315150217905550505050600360008154809291906001019190505550505050505050565b6000818154811061067f57fe5b9060005260206000209060090201600091509050806000018054600181600116156101000203166002900480601f01602080910402602001604051908101604052809291908181526020018280546001816001161561010002031660029004801561072b5780601f106107005761010080835404028352916020019161072b565b820191906000526020600020905b81548152906001019060200180831161070e57829003601f168201915b5050505050908060010160009054906101000a900473ffffffffffffffffffffffffffffffffffffffff16908060020160009054906101000a900473ffffffffffffffffffffffffffffffffffffffff16908060030154908060040154908060050154908060060154908060070154908060080160009054906101000a900460ff16905089565b60001515600083815481106107c357fe5b906000526020600020906009020160080160009054906101000a900460ff16151514610824576040517f08c379a000000000000000000000000000000000000000000000000000000000815260040161081b90611264565b60405180910390fd5b6000828154811061083157fe5b906000526020600020906009020160030154811015610885576040517f08c379a000000000000000000000000000000000000000000000000000000000815260040161087c90611244565b60405180910390fd5b806000838154811061089357fe5b90600052602060002090600902016004016000828254019250508190555080600083815481106108bf57fe5b90600052602060002090600902016003018190555033600083815481106108e257fe5b906000526020600020906009020160010160006101000a81548173ffffffffffffffffffffffffffffffffffffffff021916908373ffffffffffffffffffffffffffffffffffffffff16021790555080600160003373ffffffffffffffffffffffffffffffffffffffff1673ffffffffffffffffffffffffffffffffffffffff168152602001908152602001600020600082825401925050819055505050565b6000600115156000838154811061099557fe5b906000526020600020906009020160080160009054906101000a900460ff161515146109f6576040517f08c379a00000000000000000000000000000000000000000000000000000000081526004016109ed90611224565b60405180910390fd5b60008281548110610a0357fe5b9060005260206000209060090201600301549050919050565b6000600354905090565b8260008581548110610a3457fe5b9060005260206000209060090201600501819055508160008581548110610a5757fe5b9060005260206000209060090201600601819055508060008581548110610a7a57fe5b90600052602060002090600902016007018190555050505050565b606060008060008060008681548110610aaa57fe5b906000526020600020906009020160000160008781548110610ac857fe5b90600052602060002090600902016003015460008881548110610ae757fe5b90600052602060002090600902016005015460008981548110610b0657fe5b90600052602060002090600902016006015460008a81548110610b2557fe5b906000526020600020906009020160070154848054600181600116156101000203166002900480601f016020809104026020016040519081016040528092919081815260200182805460018160011615610100020316600290048015610bcc5780601f10610ba157610100808354040283529160200191610bcc565b820191906000526020600020905b815481529060010190602001808311610baf57829003601f168201915b505050505094509450945094509450945091939590929450565b60016020528060005260406000206000915090505481565b60405180610120016040528060608152602001600073ffffffffffffffffffffffffffffffffffffffff168152602001600073ffffffffffffffffffffffffffffffffffffffff16815260200160008152602001600081526020016000815260200160008152602001600081526020016000151581525090565b828054600181600116156101000203166002900490600052602060002090601f016020900481019282601f10610cb957805160ff1916838001178555610ce7565b82800160010185558215610ce7579182015b82811115610ce6578251825591602001919060010190610ccb565b5b509050610cf49190610cf8565b5090565b610d1a91905b80821115610d16576000816000905550600101610cfe565b5090565b90565b600081359050610d2c816113cc565b92915050565b600081359050610d41816113e3565b92915050565b600082601f830112610d5857600080fd5b8135610d6b610d66826112cc565b61129f565b91508082526020830160208301858383011115610d8757600080fd5b610d92838284611379565b50505092915050565b600081359050610daa816113fa565b92915050565b600060208284031215610dc257600080fd5b6000610dd084828501610d1d565b91505092915050565b600080600080600060a08688031215610df157600080fd5b600086013567ffffffffffffffff811115610e0b57600080fd5b610e1788828901610d47565b9550506020610e2888828901610d9b565b9450506040610e3988828901610d9b565b9350506060610e4a88828901610d9b565b9250506080610e5b88828901610d9b565b9150509295509295909350565b600060208284031215610e7a57600080fd5b6000610e8884828501610d9b565b91505092915050565b60008060408385031215610ea457600080fd5b6000610eb285828601610d9b565b9250506020610ec385828601610d32565b9150509250929050565b60008060408385031215610ee057600080fd5b6000610eee85828601610d9b565b9250506020610eff85828601610d9b565b9150509250929050565b60008060008060808587031215610f1f57600080fd5b6000610f2d87828801610d9b565b9450506020610f3e87828801610d9b565b9350506040610f4f87828801610d9b565b9250506060610f6087828801610d9b565b91505092959194509250565b610f7581611331565b82525050565b610f848161131f565b82525050565b610f9381611343565b82525050565b6000610fa482611303565b610fae818561130e565b9350610fbe818560208601611388565b610fc7816113bb565b840191505092915050565b6000610fdd826112f8565b610fe7818561130e565b9350610ff7818560208601611388565b611000816113bb565b840191505092915050565b600061101860198361130e565b91507f41756374696f6e206d75737420626520636f6d706c65746564000000000000006000830152602082019050919050565b600061105860258361130e565b91507f426964206d7573742062652067726561746572207468616e207374617274696e60008301527f67206269640000000000000000000000000000000000000000000000000000006020830152604082019050919050565b60006110be60168361130e565b91507f41756374696f6e206d75737420626520616374697665000000000000000000006000830152602082019050919050565b6110fa8161136f565b82525050565b60006020820190506111156000830184610f7b565b92915050565b60006020820190506111306000830184610f8a565b92915050565b600060a08201905081810360008301526111508188610f99565b905061115f60208301876110f1565b61116c60408301866110f1565b61117960608301856110f1565b61118660808301846110f1565b9695505050505050565b60006101208201905081810360008301526111ab818c610fd2565b90506111ba602083018b610f6c565b6111c7604083018a610f6c565b6111d460608301896110f1565b6111e160808301886110f1565b6111ee60a08301876110f1565b6111fb60c08301866110f1565b61120860e08301856110f1565b611216610100830184610f8a565b9a9950505050505050505050565b6000602082019050818103600083015261123d8161100b565b9050919050565b6000602082019050818103600083015261125d8161104b565b9050919050565b6000602082019050818103600083015261127d816110b1565b9050919050565b600060208201905061129960008301846110f1565b92915050565b6000604051905081810181811067ffffffffffffffff821117156112c257600080fd5b8060405250919050565b600067ffffffffffffffff8211156112e357600080fd5b601f19601f8301169050602081019050919050565b600081519050919050565b600081519050919050565b600082825260208201905092915050565b600061132a8261134f565b9050919050565b600061133c8261134f565b9050919050565b60008115159050919050565b600073ffffffffffffffffffffffffffffffffffffffff82169050919050565b6000819050919050565b82818337600083830152505050565b60005b838110156113a657808201518184015260208101905061138b565b838111156113b5576000848401525b50505050565b6000601f19601f8301169050919050565b6113d58161131f565b81146113e057600080fd5b50565b6113ec81611331565b81146113f757600080fd5b50565b6114038161136f565b811461140e57600080fd5b5056fea365627a7a723158205f62ecc2b71cad599e0d9a3e913c9769a3970bad30393a69a37a9cd3a21514216c6578706572696d656e74616cf564736f6c63430005100040",
  "source": "pragma solidity >=0.4.22 <0.7.0;\npragma experimental ABIEncoderV2;\n\ncontract AuctionHouse {\n\n    struct Auction {\n        string itemName;\n        address payable leadingBidder;\n        address payable auctionCreator;\n        uint bid;\n        uint total;\n\tuint h;\n\tuint m;\n\tuint s;\n        bool completed;\n    }\n\n    Auction[] public auctions;\n\n    mapping(address => uint) public bidders;\n\n    mapping(address => bool) public auctionWinners;\n\n    uint public auctionCount;\n\n    address public manager;\n\n\n    constructor() public {\n        manager = msg.sender;\n    }\n\n    function createAuction(string memory name, uint bidStart, uint shours, uint sminutes, uint sseconds) public {\n        //establishes timestamp on the auction\n        Auction memory newAuction = Auction({\n            itemName: name,\n            leadingBidder: msg.sender,\n            auctionCreator: msg.sender,\n            bid: bidStart,\n            total: 0,\n\t    h: shours,\n\t    m: sminutes,\n\t    s: sseconds,\n            completed: false\n        });\n\n        auctions.push(newAuction);\n        auctionCount++;\n    }\n\n    function setAuctionWinner(uint auctionID, address payable winner) public {\n        require(auctions[auctionID].completed == false, 'Auction must be active');\n        auctions[auctionID].leadingBidder = winner;     //the current leading bidder will be the winner if the auction has expired\n        auctionWinners[winner] = true;\n        auctions[auctionID].completed = true;\n    }\n\n    function getLastSoldVal(uint auctionID) public view returns (uint) {\n        require(auctions[auctionID].completed == true, 'Auction must be completed');\n        return auctions[auctionID].bid;   //the current state of highest bid is the last winning bid\n    }\n\n    function viewPreviousAuction(uint auctionID) public view returns(string memory name, uint bid, uint hour, uint minute, uint second) {\n        return (auctions[auctionID].itemName, auctions[auctionID].bid, auctions[auctionID].h, auctions[auctionID].m, auctions[auctionID].s);\n    }\n\n    function getAuctionCount() public view returns(uint) {\n    \treturn auctionCount;\n    }\n\n    function placeBid(uint auctionID, uint bidValue) public payable {\n        require(auctions[auctionID].completed == false, 'Auction must be active');\n        require(bidValue >= auctions[auctionID].bid, 'Bid must be greater than starting bid');\n\n        auctions[auctionID].total += bidValue;\n        auctions[auctionID].bid = bidValue;\n        auctions[auctionID].leadingBidder = msg.sender;\n        bidders[msg.sender] += bidValue;\n    }\n\n    function updateTime(uint auctionID, uint hs, uint ms, uint ss) public {\n\tauctions[auctionID].h = hs;\n\tauctions[auctionID].m = ms;\n\tauctions[auctionID].s = ss;\n    }\n}\n",
  "sourcePath": "/home/j/decentralized-auction-app/src/auction/contracts/AuctionHouse.sol",
  "compiler": {
    "name": "solc",
    "version": "0.5.16+commit.9c3226ce.Emscripten.clang"
  },
  "schemaVersion": "3.3.2",
  "updatedAt": "2020-12-11T23:16:17.151Z",
  "networkType": "ethereum",
  "devdoc": {
    "methods": {}
  },
  "userdoc": {
    "methods": {}
  }
}