{
  "contractName": "AuctionHouse",
  "abi": [
    {
      "inputs": [],
      "payable": false,
      "stateMutability": "nonpayable",
      "type": "constructor"
    },
    {
      "constant": true,
      "inputs": [],
      "name": "auctionCount",
      "outputs": [
        {
          "internalType": "uint256",
          "name": "",
          "type": "uint256"
        }
      ],
      "payable": false,
      "stateMutability": "view",
      "type": "function"
    },
    {
      "constant": true,
      "inputs": [
        {
          "internalType": "address",
          "name": "",
          "type": "address"
        }
      ],
      "name": "auctionWinners",
      "outputs": [
        {
          "internalType": "bool",
          "name": "",
          "type": "bool"
        }
      ],
      "payable": false,
      "stateMutability": "view",
      "type": "function"
    },
    {
      "constant": true,
      "inputs": [
        {
          "internalType": "uint256",
          "name": "",
          "type": "uint256"
        }
      ],
      "name": "auctions",
      "outputs": [
        {
          "internalType": "string",
          "name": "itemName",
          "type": "string"
        },
        {
          "internalType": "uint256",
          "name": "minBid",
          "type": "uint256"
        },
        {
          "internalType": "uint256",
          "name": "highestBid",
          "type": "uint256"
        },
        {
          "internalType": "address payable",
          "name": "leadingBidder",
          "type": "address"
        },
        {
          "internalType": "address payable",
          "name": "auctionCreator",
          "type": "address"
        },
        {
          "internalType": "uint256",
          "name": "total",
          "type": "uint256"
        },
        {
          "internalType": "bool",
          "name": "completed",
          "type": "bool"
        }
      ],
      "payable": false,
      "stateMutability": "view",
      "type": "function"
    },
    {
      "constant": true,
      "inputs": [
        {
          "internalType": "address",
          "name": "",
          "type": "address"
        }
      ],
      "name": "bidders",
      "outputs": [
        {
          "internalType": "uint256",
          "name": "",
          "type": "uint256"
        }
      ],
      "payable": false,
      "stateMutability": "view",
      "type": "function"
    },
    {
      "constant": true,
      "inputs": [],
      "name": "manager",
      "outputs": [
        {
          "internalType": "address",
          "name": "",
          "type": "address"
        }
      ],
      "payable": false,
      "stateMutability": "view",
      "type": "function"
    },
    {
      "constant": false,
      "inputs": [
        {
          "internalType": "string",
          "name": "name",
          "type": "string"
        },
        {
          "internalType": "uint256",
          "name": "bid",
          "type": "uint256"
        }
      ],
      "name": "createAuction",
      "outputs": [],
      "payable": false,
      "stateMutability": "nonpayable",
      "type": "function"
    },
    {
      "constant": false,
      "inputs": [
        {
          "internalType": "uint256",
          "name": "auctionID",
          "type": "uint256"
        },
        {
          "internalType": "address payable",
          "name": "winner",
          "type": "address"
        }
      ],
      "name": "setAuctionWinner",
      "outputs": [],
      "payable": false,
      "stateMutability": "nonpayable",
      "type": "function"
    },
    {
      "constant": true,
      "inputs": [
        {
          "internalType": "uint256",
          "name": "auctionID",
          "type": "uint256"
        }
      ],
      "name": "getLastSoldVal",
      "outputs": [
        {
          "internalType": "uint256",
          "name": "",
          "type": "uint256"
        }
      ],
      "payable": false,
      "stateMutability": "view",
      "type": "function"
    },
    {
      "constant": true,
      "inputs": [
        {
          "internalType": "uint256",
          "name": "auctionID",
          "type": "uint256"
        }
      ],
      "name": "viewPreviousAuction",
      "outputs": [
        {
          "internalType": "string",
          "name": "",
          "type": "string"
        },
        {
          "internalType": "uint256",
          "name": "",
          "type": "uint256"
        }
      ],
      "payable": false,
      "stateMutability": "view",
      "type": "function"
    },
    {
      "constant": false,
      "inputs": [
        {
          "internalType": "uint256",
          "name": "auctionID",
          "type": "uint256"
        },
        {
          "internalType": "uint256",
          "name": "bidValue",
          "type": "uint256"
        }
      ],
      "name": "placeBid",
      "outputs": [],
      "payable": true,
      "stateMutability": "payable",
      "type": "function"
    },
    {
      "constant": true,
      "inputs": [],
      "name": "getAuctionCount",
      "outputs": [
        {
          "internalType": "uint256",
          "name": "",
          "type": "uint256"
        }
      ],
      "payable": false,
      "stateMutability": "view",
      "type": "function"
    }
  ],
  "bytecode": "0x608060405234801561001057600080fd5b5033600460006101000a81548173ffffffffffffffffffffffffffffffffffffffff021916908373ffffffffffffffffffffffffffffffffffffffff160217905550611323806100616000396000f3fe60806040526004361061009c5760003560e01c806357c90de51161006457806357c90de5146101a057806390cb0393146101bc578063c44e6640146101f9578063f3464d7614610224578063fcc8f79314610262578063ff8952391461029f5761009c565b80630a71450b146100a15780632ad71573146100de57806339c2607d14610109578063481c6a7514610132578063571a26a01461015d575b600080fd5b3480156100ad57600080fd5b506100c860048036036100c39190810190610d05565b6102c8565b6040516100d59190611012565b60405180910390f35b3480156100ea57600080fd5b506100f36102e8565b6040516101009190611153565b60405180910390f35b34801561011557600080fd5b50610130600480360361012b9190810190610dab565b6102ee565b005b34801561013e57600080fd5b50610147610450565b6040516101549190610ff7565b60405180910390f35b34801561016957600080fd5b50610184600480360361017f9190810190610d82565b610476565b604051610197979695949392919061105d565b60405180910390f35b6101ba60048036036101b59190810190610de7565b6105aa565b005b3480156101c857600080fd5b506101e360048036036101de9190810190610d82565b610822565b6040516101f09190611153565b60405180910390f35b34801561020557600080fd5b5061020e6108bc565b60405161021b9190611153565b60405180910390f35b34801561023057600080fd5b5061024b60048036036102469190810190610d82565b6108c6565b60405161025992919061102d565b60405180910390f35b34801561026e57600080fd5b5061028960048036036102849190810190610d05565b6109ab565b6040516102969190611153565b60405180910390f35b3480156102ab57600080fd5b506102c660048036036102c19190810190610d2e565b6109c3565b005b60026020528060005260406000206000915054906101000a900460ff1681565b60035481565b60001515600083815481106102ff57fe5b906000526020600020906007020160060160009054906101000a900460ff16151514610360576040517f08c379a000000000000000000000000000000000000000000000000000000000815260040161035790611113565b60405180910390fd5b806000838154811061036e57fe5b906000526020600020906007020160030160006101000a81548173ffffffffffffffffffffffffffffffffffffffff021916908373ffffffffffffffffffffffffffffffffffffffff1602179055506001600260008373ffffffffffffffffffffffffffffffffffffffff1673ffffffffffffffffffffffffffffffffffffffff16815260200190815260200160002060006101000a81548160ff02191690831515021790555060016000838154811061042457fe5b906000526020600020906007020160060160006101000a81548160ff0219169083151502179055505050565b600460009054906101000a900473ffffffffffffffffffffffffffffffffffffffff1681565b6000818154811061048357fe5b9060005260206000209060070201600091509050806000018054600181600116156101000203166002900480601f01602080910402602001604051908101604052809291908181526020018280546001816001161561010002031660029004801561052f5780601f106105045761010080835404028352916020019161052f565b820191906000526020600020905b81548152906001019060200180831161051257829003601f168201915b5050505050908060010154908060020154908060030160009054906101000a900473ffffffffffffffffffffffffffffffffffffffff16908060040160009054906101000a900473ffffffffffffffffffffffffffffffffffffffff16908060050154908060060160009054906101000a900460ff16905087565b60001515600083815481106105bb57fe5b906000526020600020906007020160060160009054906101000a900460ff1615151461061c576040517f08c379a000000000000000000000000000000000000000000000000000000000815260040161061390611113565b60405180910390fd5b6000828154811061062957fe5b90600052602060002090600702016001015481101561067d576040517f08c379a000000000000000000000000000000000000000000000000000000000815260040161067490611133565b60405180910390fd5b806000838154811061068b57fe5b906000526020600020906007020160050160008282540192505081905550600160003373ffffffffffffffffffffffffffffffffffffffff1673ffffffffffffffffffffffffffffffffffffffff16815260200190815260200160002054811161072a576040517f08c379a0000000000000000000000000000000000000000000000000000000008152600401610721906110f3565b60405180910390fd5b6000828154811061073757fe5b90600052602060002090600702016002015481111561081e57806000838154811061075e57fe5b906000526020600020906007020160020181905550336000838154811061078157fe5b906000526020600020906007020160030160006101000a81548173ffffffffffffffffffffffffffffffffffffffff021916908373ffffffffffffffffffffffffffffffffffffffff16021790555080600160003373ffffffffffffffffffffffffffffffffffffffff1673ffffffffffffffffffffffffffffffffffffffff168152602001908152602001600020600082825401925050819055505b5050565b6000600115156000838154811061083557fe5b906000526020600020906007020160060160009054906101000a900460ff16151514610896576040517f08c379a000000000000000000000000000000000000000000000000000000000815260040161088d906110d3565b60405180910390fd5b600082815481106108a357fe5b9060005260206000209060070201600201549050919050565b6000600354905090565b606060008083815481106108d657fe5b9060005260206000209060070201600001600084815481106108f457fe5b906000526020600020906007020160020154818054600181600116156101000203166002900480601f01602080910402602001604051908101604052809291908181526020018280546001816001161561010002031660029004801561099b5780601f106109705761010080835404028352916020019161099b565b820191906000526020600020905b81548152906001019060200180831161097e57829003601f168201915b5050505050915091509150915091565b60016020528060005260406000206000915090505481565b6109cb610b62565b6040518060e00160405280848152602001838152602001600081526020013373ffffffffffffffffffffffffffffffffffffffff1681526020013373ffffffffffffffffffffffffffffffffffffffff16815260200160008152602001600015158152509050600081908060018154018082558091505090600182039060005260206000209060070201600090919290919091506000820151816000019080519060200190610a7b929190610bcd565b50602082015181600101556040820151816002015560608201518160030160006101000a81548173ffffffffffffffffffffffffffffffffffffffff021916908373ffffffffffffffffffffffffffffffffffffffff16021790555060808201518160040160006101000a81548173ffffffffffffffffffffffffffffffffffffffff021916908373ffffffffffffffffffffffffffffffffffffffff16021790555060a0820151816005015560c08201518160060160006101000a81548160ff021916908315150217905550505050600360008154809291906001019190505550505050565b6040518060e00160405280606081526020016000815260200160008152602001600073ffffffffffffffffffffffffffffffffffffffff168152602001600073ffffffffffffffffffffffffffffffffffffffff168152602001600081526020016000151581525090565b828054600181600116156101000203166002900490600052602060002090601f016020900481019282601f10610c0e57805160ff1916838001178555610c3c565b82800160010185558215610c3c579182015b82811115610c3b578251825591602001919060010190610c20565b5b509050610c499190610c4d565b5090565b610c6f91905b80821115610c6b576000816000905550600101610c53565b5090565b90565b600081359050610c818161129b565b92915050565b600081359050610c96816112b2565b92915050565b600082601f830112610cad57600080fd5b8135610cc0610cbb8261119b565b61116e565b91508082526020830160208301858383011115610cdc57600080fd5b610ce7838284611248565b50505092915050565b600081359050610cff816112c9565b92915050565b600060208284031215610d1757600080fd5b6000610d2584828501610c72565b91505092915050565b60008060408385031215610d4157600080fd5b600083013567ffffffffffffffff811115610d5b57600080fd5b610d6785828601610c9c565b9250506020610d7885828601610cf0565b9150509250929050565b600060208284031215610d9457600080fd5b6000610da284828501610cf0565b91505092915050565b60008060408385031215610dbe57600080fd5b6000610dcc85828601610cf0565b9250506020610ddd85828601610c87565b9150509250929050565b60008060408385031215610dfa57600080fd5b6000610e0885828601610cf0565b9250506020610e1985828601610cf0565b9150509250929050565b610e2c81611200565b82525050565b610e3b816111ee565b82525050565b610e4a81611212565b82525050565b6000610e5b826111d2565b610e6581856111dd565b9350610e75818560208601611257565b610e7e8161128a565b840191505092915050565b6000610e94826111c7565b610e9e81856111dd565b9350610eae818560208601611257565b610eb78161128a565b840191505092915050565b6000610ecf6019836111dd565b91507f41756374696f6e206d75737420626520636f6d706c65746564000000000000006000830152602082019050919050565b6000610f0f6029836111dd565b91507f4e65787420626964206d75737420626520686967686572207468616e2070726560008301527f76696f75732062696400000000000000000000000000000000000000000000006020830152604082019050919050565b6000610f756016836111dd565b91507f41756374696f6e206d75737420626520616374697665000000000000000000006000830152602082019050919050565b6000610fb56020836111dd565b91507f426964206d7573742062652067726561746572207468616e206d696e696d756d6000830152602082019050919050565b610ff18161123e565b82525050565b600060208201905061100c6000830184610e32565b92915050565b60006020820190506110276000830184610e41565b92915050565b600060408201905081810360008301526110478185610e50565b90506110566020830184610fe8565b9392505050565b600060e0820190508181036000830152611077818a610e89565b90506110866020830189610fe8565b6110936040830188610fe8565b6110a06060830187610e23565b6110ad6080830186610e23565b6110ba60a0830185610fe8565b6110c760c0830184610e41565b98975050505050505050565b600060208201905081810360008301526110ec81610ec2565b9050919050565b6000602082019050818103600083015261110c81610f02565b9050919050565b6000602082019050818103600083015261112c81610f68565b9050919050565b6000602082019050818103600083015261114c81610fa8565b9050919050565b60006020820190506111686000830184610fe8565b92915050565b6000604051905081810181811067ffffffffffffffff8211171561119157600080fd5b8060405250919050565b600067ffffffffffffffff8211156111b257600080fd5b601f19601f8301169050602081019050919050565b600081519050919050565b600081519050919050565b600082825260208201905092915050565b60006111f98261121e565b9050919050565b600061120b8261121e565b9050919050565b60008115159050919050565b600073ffffffffffffffffffffffffffffffffffffffff82169050919050565b6000819050919050565b82818337600083830152505050565b60005b8381101561127557808201518184015260208101905061125a565b83811115611284576000848401525b50505050565b6000601f19601f8301169050919050565b6112a4816111ee565b81146112af57600080fd5b50565b6112bb81611200565b81146112c657600080fd5b50565b6112d28161123e565b81146112dd57600080fd5b5056fea365627a7a7231582023548d6a26e959c49aabc6400faef3c270a1df720a533d4a4bb42cd7260d2b586c6578706572696d656e74616cf564736f6c63430005100040",
  "source": "pragma solidity >=0.4.22 <0.7.0;\npragma experimental ABIEncoderV2;\n\ncontract AuctionHouse {\n\n    struct Auction {\n        string itemName;\n        uint minBid;\n        uint highestBid;\n        address payable leadingBidder;\n        address payable auctionCreator;\n        uint total;\n        bool completed;\n    }\n\n    Auction[] public auctions;\n\n    mapping(address => uint) public bidders;\n\n    mapping(address => bool) public auctionWinners;\n\n    uint public auctionCount;\n\n    address public manager;\n\n\n    constructor() public {\n        manager = msg.sender;\n    }\n\n    function createAuction(string memory name, uint bid) public {\n        //establishes timestamp on the auction\n        Auction memory newAuction = Auction({\n            itemName: name,\n            minBid: bid,\n            highestBid: 0,  //keeps track of last winning bid- new bid must be higher >-handle double spending of bids\n            leadingBidder: msg.sender,\n            auctionCreator: msg.sender,\n            total: 0,\n            completed: false\n        });\n\n        auctions.push(newAuction);\n        auctionCount++;\n    }\n\n    function setAuctionWinner(uint auctionID, address payable winner) public {\n        require(auctions[auctionID].completed == false, 'Auction must be active');\n        auctions[auctionID].leadingBidder = winner;     //the current leading bidder will be the winner if the auction has expired\n        auctionWinners[winner] = true;\n        auctions[auctionID].completed = true;\n    }\n\n    function getLastSoldVal(uint auctionID) public view returns (uint) {\n        require(auctions[auctionID].completed == true, 'Auction must be completed');\n        return auctions[auctionID].highestBid;   //the current state of highest bid is the last winning bid\n    }\n\n    function viewPreviousAuction(uint auctionID) public view returns(string memory, uint) {\n        return (auctions[auctionID].itemName, auctions[auctionID].highestBid);\n    }\n\n    function placeBid(uint auctionID, uint bidValue) public payable {\n        require(auctions[auctionID].completed == false, 'Auction must be active');\n        require(bidValue >= auctions[auctionID].minBid, 'Bid must be greater than minimum');\n        auctions[auctionID].total += bidValue;\n\n        //conditional check for updating last bid value\n        require(bidValue > bidders[msg.sender], 'Next bid must be higher than previous bid');\n\n\n        if(bidValue > auctions[auctionID].highestBid) {\n            auctions[auctionID].highestBid = bidValue;\n            auctions[auctionID].leadingBidder = msg.sender;\n            bidders[msg.sender] += bidValue;\n        }\n    }\n\n    function getAuctionCount() public view returns(uint) {\n    \treturn auctionCount;\n    }\n    function stringToBytes32(string memory source) private pure returns (bytes32 result) {\n        bytes memory tempEmptyStringTest = bytes(source);\n        if (tempEmptyStringTest.length == 0) {\n            return 0x0;\n        }\n\n        assembly {\n            result := mload(add(source, 32))\n        }\n    }\n}\n",
  "sourcePath": "/home/j/decentralized-auction-app/src/auction/contracts/AuctionHouse.sol",
  "compiler": {
    "name": "solc",
    "version": "0.5.16+commit.9c3226ce.Emscripten.clang"
  },
  "schemaVersion": "3.3.2",
  "updatedAt": "2020-12-07T23:25:02.375Z",
  "networkType": "ethereum",
  "devdoc": {
    "methods": {}
  },
  "userdoc": {
    "methods": {}
  }
}